:020000040800F2
:1000000000500020610900089109000893090008C8
:1000100095090008970900089909000800000000E8
:100020000000000000000000000000009B09000824
:100030009D090008000000009F090008A1090008B0
:10004000A5090008A7090008A9090008AB090008CC
:10005000AD090008AF090008B1090008B30900089C
:10006000B5090008B7090008B9090008BB0900086C
:10007000BD090008BF090008C1090008C30900083C
:10008000C5090008C7090008C9090008CB0900080C
:10009000CD090008CF090008D1090008D3090008DC
:1000A000D5090008D7090008D9090008DB090008AC
:1000B000DD090008DF090008E1090008E30900087C
:1000C000E5090008E7090008E9090008EB0900084C
:1000D000ED090008EF090008F1090008F30900081C
:1000E000F5090008F7090008F909000810B5054CE2
:1000F000237833B9044B13B10448AFF300800123D4
:10010000237010BD6C00002000000000C00B000830
:1001100008B5064B1BB106480649AFF300800648F8
:10012000036813B1054B03B1984708BD00000000F8
:10013000C00B0008700000206C00002000000000D0
:10014000154B002B08BF134B9D46A3F5803A0021A9
:100150008B460F461348144A121A00F017FD0F4B36
:10016000002B00D098470E4B002B00D09847002062
:10017000002104000D000D48002802D00C48AFF308
:10018000008000F0DDFC2000290000F077FA00F08C
:10019000C3FC00BF00000800005000200000000069
:1001A000000000006C00002088000020000000001B
:1001B00000000000CB782DE9F00303F00F06DB060A
:1001C00048BF8B780A8848BF1E4312F0FF0F27D024
:1001D0000768002301254FF00F0803E00133082BC7
:1001E0001CD00A8805FA03F42240A242F6D19C00F2
:1001F00008FA04F906FA04F491F803C027EA09079B
:10020000BCF1280F47EA040708BF4261E6D0BCF101
:10021000480F08BF02610133082BE2D107600A884A
:10022000FF2A28D94768002301254FF00F0803E073
:100230000133082B1ED00A8803F1080405FA04F4E0
:100240002240A242F4D19C0008FA04F906FA04F410
:1002500091F803C027EA0907BCF1280F04BF4261E7
:1002600091F803C02743BCF1480F08BF0261013376
:10027000082BE0D14760BDE8F0037047416170474B
:10028000C160704730B400230028C4F2010300F4B9
:100290004012B4BFDB695B68B2F5401F84B222D064
:1002A000C20217D5C0F30342032505FA02F223EA7E
:1002B000020343F0706321B1420D120104FA02F40B
:1002C00023430022C4F201020028B4BFD36153606B
:1002D00030BC7047420D120104FA02F223EA020315
:1002E00043F07063E7E70022C4F20102556823F08F
:1002F000706325F070655560DDE700BF4FF48053F3
:10030000C4F202039A6919B922EA000098617047A1
:1003100010439861704700BF4FF48053C4F202034A
:10032000DA6919B922EA0000D86170471043D86130
:10033000704700BF70B44FF430524FF45054C4F2C1
:1003400001020388C4F20104904218BFA0429BB28C
:1003500014BF0022012208D04FF48064C4F20004CC
:10036000B0F1804F18BFA04236D14FF68F754C8840
:100370001D4045EA04034FF4A0564FF48055C4F2E3
:100380000005C4F20006B04218BFA8421FBFCD88C6
:100390004FF6FF441C4044EA050303808B888385A5
:1003A0000B8803855AB94FF488424FF48043C4F256
:1003B0000102C4F20103984218BF904205D10B7AA2
:1003C00003860123838270BC70474FF49043C4F2CC
:1003D00001039842F5D1F2E74FF440654FF4006411
:1003E000C4F20005C4F20004A04218BFA842C2D162
:1003F000BBE700BF038C2DE9F00123F001031B04D0
:100400001B0C0384038C0D8984884F88028B2F4337
:1004100022F0730223F002034FF450564FF430558C
:1004200012041B04B1F800C0C4F20106C4F20105B5
:10043000120C1B0CBFB2A84218BFB042A4B242EAD1
:100440000C0247EA03030BD04FF488464FF4804573
:10045000C4F20106C4F20105A84218BFB0421ED181
:100460004FF6F775B1F80AC0B1F80E808F891D40BC
:1004700045EA0C0C4FF6FB738E884FF6FF4548EAB1
:10048000070725400CEA0303BCB233432C438480A6
:100490000283CA8882860384BDE8F00170474FF466
:1004A0009045C4F20105A842F1D1D9E7038CF0B41C
:1004B00023F010031B041B0C0384028C848822F09D
:1004C0002002038B12040D89120C23F4E6431B0453
:1004D00042EA0512B1F800C04F884FF450564FF46D
:1004E00030551B0CC4F20106C4F2010543EA0C238B
:1004F00042EA0712A84218BFB042A4B29BB292B21D
:1005000017D14F894FF67F7616404FF2FF35B1F87D
:100510000CC0254046EA07164FF6BF728F88CC897B
:10052000324045EA8C0542EA071245EA840492B259
:10053000A4B284800383CB8803870284F0BC704715
:10054000038CF0B423F480731B041B0C0384028C13
:100550000D8922F4007284881204838B120C42EA03
:10056000052223F07303B1F802C04FF450564FF444
:1005700030551B040F88C4F20106C4F201051B0CA0
:1005800042EA0C22A84218BFB042A4B243EA0703D1
:1005900092B217D14F894FF2FF7616404CF6FF7595
:1005A000B1F80CC0254046EA07264FF6FF328F8887
:1005B000CC89324045EA0C1542EA072245EA041488
:1005C00092B2A4B284808383CB8883870284F0BCF8
:1005D000704700BF038CF0B423F480531B041B0C42
:1005E0000384028C0D8922F4005284881204838BC8
:1005F000120C42EA053223F4E6434FF450564FF40E
:100600003055C4F20105C4F201061B041B0CA842BC
:1006100018BFB042B1F800C008BF8E89A4B202BFB3
:100620004BF6FF75254045EA861443EA0C234F88B4
:100630009BB208BFA4B284808383CB8842EA07328E
:1006400092B2A0F840300284F0BC7047038829B908
:1006500023F001031B041B0C038070479BB243F083
:1006600001030380704700BF818670470187704790
:1006700081877047A0F84010704700BF08B500F0B0
:10068000BDF900F009F80120002100F091F80220E6
:10069000002100F08DF8FEE770B5022088B001213E
:1006A000FFF73AFE10200121FFF728FE4FF44060CB
:1006B0000121C0F21A00FFF7E5FD4FF480541C231E
:1006C000C4F201048DF803304FF47073694620467C
:1006D000ADF8003002238DF80230FFF76BFD0021EA
:1006E0002046FFF7CDFD40F20003C2F200031A6876
:1006F00041F68553C6F6D973A3FB02134FF4806409
:100700001B0DC4F20004013B0025204601A9ADF8F1
:100710000430FF230126ADF80830ADF80A50ADF8DB
:100720000650FFF707FE6023204604A9ADF81030FD
:10073000ADF81260ADF81650ADF81850FFF75AFE3C
:10074000204604A9FFF7B2FE204604A9FFF7F8FEF1
:10075000204604A9FFF73EFF20463146FFF776FF0B
:1007600008B070BD012810B50C4602D002280FD089
:1007700010BD4FF48060C4F20000FFF775FF4FF426
:100780008060C4F200002146BDE81040FFF76EBF54
:100790004FF48060C4F20000FFF76AFF4FF48060FE
:1007A000C4F200002146BDE81040FFF763BF00BF60
:1007B00030B5044683B00D460021FFF7D3FF012C6E
:1007C00003D0022C23D003B030BD4FF48050402121
:1007D000C4F20100FFF752FD4FF480508021C4F2B3
:1007E0000100FFF74BFD012D79D057D214238DF86E
:1007F00007304FF48050C023ADF80430C4F201003C
:10080000022301A98DF80630FFF7D4FCDBE74FF493
:100810008050C4F201004FF48071FFF72FFD4FF4B8
:100820008050C4F201004FF40071FFF727FD012D45
:1008300075D010D214234FF480508DF80730C4F2D5
:1008400001004FF4407301A9ADF804308DF8064063
:10085000FFF7B0FCB7E7022DB5D114234FF4805059
:1008600001A98DF80730C4F201004FF48073ADF890
:1008700004308DF80650FFF79DFC1C234FF4805088
:100880008DF80730C4F201004FF4007301A9ADF8F0
:1008900004308DF80650FFF78DFC94E7022D92D1BD
:1008A00014234FF4805001A98DF80730C4F20100E1
:1008B0004023ADF804308DF80650FFF77BFC1C2375
:1008C0004FF480508DF80730C4F20100802301A955
:1008D000ADF804308DF80650FFF76CFC73E7142375
:1008E0004FF48050022401A98DF80730C4F20100B2
:1008F0008023ADF804308DF80640FFF75BFC1C2325
:100900004FF480508DF80730C4F20100402301A954
:10091000ADF804308DF80640FFF74CFC53E7142384
:100920004FF4805001A98DF80730C4F201004FF454
:100930000073ADF804308DF80640FFF73BFC1C2334
:100940004FF480508DF80730C4F201004FF48073EB
:1009500001A9ADF804308DF80640FFF72BFC32E713
:100960000649074A074B9A42BEBF51F8040B42F8AA
:10097000040BF8E70448804704480047CC0B000804
:10098000000000206C000020FD0900084101000863
:10099000FEE7FEE7FEE7FEE7FEE7FEE7FEE7FEE72F
:1009A000FEE7FEE7FEE7FEE7FEE7FEE7FEE7FEE71F
:1009B000FEE7FEE7FEE7FEE7FEE7FEE7FEE7FEE70F
:1009C000FEE7FEE7FEE7FEE7FEE7FEE7FEE7FEE7FF
:1009D000FEE7FEE7FEE7FEE7FEE7FEE7FEE7FEE7EF
:1009E000FEE7FEE7FEE7FEE7FEE7FEE7FEE7FEE7DF
:1009F000FEE7FEE7FEE7FEE7FEE700BF4FF48053A9
:100A0000C4F202031968002241F00101196059681B
:100A1000CFF6FF020A405A601A68002122F0847261
:100A200022F480321A601A6882B022F480221A609E
:100A300058681A4620F4FE0058604FF41F00986072
:100A400000910191196841F48031196003E0009B25
:100A5000B3F5A06F09D0136803F400330193009B32
:100A600001330093019B002BF1D04FF48053C4F26B
:100A700002031B6813F4003308BF019301D0012364
:100A80000193019B012B08D04FF46D43CEF200037C
:100A90004FF000629A6002B070474FF40052C4F207
:100AA000020211684FF4805341F010011160116887
:100AB000C4F2020321F0030111601068194640F0EE
:100AC000020010605A685A605A685A605A6842F4C4
:100AD00080625A605A6822F47C125A605A6842F462
:100AE000E8125A601A6842F080721A600A684FF47D
:100AF00080539201C4F20203F8D559681A4621F0D6
:100B000003015960596841F002015960536803F0CC
:100B10000C03082BFAD1B7E708B5074B044613B10D
:100B20000021AFF30080054B1868836A03B1984732
:100B3000204600F033F800BF00000000BC0B0008A6
:100B400070B50E4B0E4D0024ED1AAD101E4603E09D
:100B500056F8242090470134AC42F9D100F020F837
:100B6000084D094B0024ED1AAD101E4603E056F85F
:100B7000242090470134AC42F9D170BD64000020BC
:100B800064000020680000206400002082180346F2
:100B900001E003F8011B9342FBD17047FEE700BF61
:100BA000F8B500BFF8BC08BC9E467047F8B500BF5A
:100BB000F8BC08BC9E4670474300000004000020BB
:040BC0000000000031
:080BC4007CF5FF7F0100000039
:100BCC0000A24A0400000000000000000000000029
:100BDC000000000000000000000000000000000009
:100BEC0000000000B80B000800000000000000002E
:100BFC0000000000000000000000000000000000E9
:100C0C0000000000000000000000000000000000D8
:100C1C0000000000000000000000000000000000C8
:0C0C2C000000000011010008ED000008AD
:0400000508000000EF
:00000001FF
