:020000040800F2
:10000000005000203D0F00086D0F00086F0F000822
:10001000710F0008730F0008750F00080000000042
:10002000000000000000000000000000770F000842
:10003000790F0008000000007B0F00087D0F00080A
:10004000810F0008830F0008850F0008870F000844
:10005000890F00088B0F00088D0F00088F0F000814
:10006000910F0008930F0008950F0008970F0008E4
:10007000990F00089B0F00089D0F00089F0F0008B4
:10008000A10F0008A30F0008A50F0008A70F000884
:10009000A90F0008AB0F0008AD0F0008AF0F000854
:1000A000B10F0008B30F0008B50F0008B70F000824
:1000B000B90F0008BB0F0008BD0F0008BF0F0008F4
:1000C000C10F0008C30F0008C50F0008C70F0008C4
:1000D000C90F0008CB0F0008CD0F0008CF0F000894
:1000E000D10F0008D30F0008D50F000810B5054C3C
:1000F000237833B9044B13B10448AFF300800123D4
:10010000237010BD6C00002000000000E012000809
:1001100008B5064B1BB106480649AFF300800648F8
:10012000036813B1054B03B1984708BD00000000F8
:10013000E0120008700000206C00002000000000A9
:10014000154B002B08BF134B9D46A3F5803A0021A9
:100150008B460F461348144A121A01F0A7F80F4BAA
:10016000002B00D098470E4B002B00D09847002062
:10017000002104000D000D48002802D00C48AFF308
:10018000008001F06DF82000290000F0FBFC01F078
:1001900053F800BF000008000050002000000000DD
:1001A000000000006C00002088000020000000001B
:1001B0000000000080B489B000AF786039604FF073
:1001C0000003FB614FF000033B614FF00003BB6194
:1001D0004FF00003FB604FF000037B614FF0000322
:1001E000BB603B68DB7803F00F03FB613B68DB78A7
:1001F00003F01003002B04D03B689B78FA6913438B
:10020000FB613B681B88DBB2002B4ED07B681B6810
:100210007B614FF00003BB6141E0BB694FF001021D
:1002200002FA03F3FB603B681B881A46FB68134025
:100230003B613A69FB689A422DD1BB694FEA83035F
:10024000FB60FB684FF00F0202FA03F3BB60BB6870
:100250006FEA03037A6913407B61FB68FA6902FA6B
:1002600003F37A6913437B613B68DB78282B07D162
:10027000BB694FF0010202FA03F27B685A610AE09F
:100280003B68DB78482B06D1BB694FF0010202FACC
:1002900003F27B681A61BB6903F10103BB61BB69AF
:1002A000072BBAD97B687A691A603B681B88FF2BD9
:1002B00053D97B685B687B614FF00003BB6146E00C
:1002C000BB6903F108034FF0010202FA03F3FB607C
:1002D0003B681B881A46FB6813403B613A69FB6820
:1002E0009A4230D1BB694FEA8303FB60FB684FF051
:1002F0000F0202FA03F3BB60BB686FEA03037A697B
:1003000013407B61FB68FA6902FA03F37A691343CD
:100310007B613B68DB78282B08D1BB6903F10803BC
:100320004FF0010202FA03F27B685A613B68DB7806
:10033000482B08D1BB6903F108034FF0010202FA10
:1003400003F27B681A61BB6903F10103BB61BB69FE
:10035000072BB5D97B687A695A6007F12407BD4637
:1003600080BC704780B483B000AF78600B467B8060
:100370007A887B685A6107F10C07BD4680BC7047DC
:1003800080B483B000AF78600B467B807A887B684E
:10039000DA6007F10C07BD4680BC704780B487B0B7
:1003A00000AF78600B46FB704FF000033B614FF0ED
:1003B0000003FB604FF000037B614FF00003BB6064
:1003C0007B68002B06DA4FF00003C4F20103DB69FF
:1003D0007B6105E04FF00003C4F201035B687B61C1
:1003E0007B6803F470234FEA1343BB607B684FEADA
:1003F00003434FEA13433B617B6803F44013B3F5B7
:10040000401F10D17B6923F070637B614FF00003C4
:10041000C4F201034FF00002C4F20102526822F05C
:1004200070625A6026E07B6803F48013002B10D0C2
:10043000BB684FF0030202FA03F3FB60FB686FEA4C
:1004400003037A6913407B617B6943F070637B61CE
:1004500010E07B684FEA53534FEA03133A6902FAFC
:1004600003F36FEA03037A6913407B617B6943F00E
:1004700070637B61FB78002B0AD07B684FEA535393
:100480004FEA03133A6902FA03F37A6913437B6173
:100490007B68002B06DA4FF00003C4F201037A698F
:1004A000DA6105E04FF00003C4F201037A695A6093
:1004B00007F11C07BD4680BC704700BF80B483B005
:1004C00000AF78600B46FB70FB78002B0CD04FF42C
:1004D0008053C4F202034FF48052C4F202029169C5
:1004E0007A680A439A610DE04FF48053C4F2020324
:1004F0004FF48052C4F2020291697A686FEA0202F4
:100500000A409A6107F10C07BD4680BC704700BFE6
:1005100080B483B000AF78600B46FB70FB78002B93
:100520000CD04FF48053C4F202034FF48052C4F253
:100530000202D1697A680A43DA610DE04FF4805310
:10054000C4F202034FF48052C4F20202D1697A6805
:100550006FEA02020A40DA6107F10C07BD4680BC6F
:10056000704700BF80B485B000AF786039604FF04D
:100570000003FB817B681B88FB817A684FF4305352
:10058000C4F201039A421FD07A684FF45053C4F268
:1005900001039A4218D07B68B3F1804F14D07A6877
:1005A0004FF48063C4F200039A420DD07A684FF48E
:1005B0000063C4F200039A4206D07A684FF44063A5
:1005C000C4F200039A4208D1FB8923F07003FB8137
:1005D0003B685A88FB891343FB817A684FF4805348
:1005E000C4F200039A420FD07A684FF4A053C4F2C9
:1005F00000039A4208D0FB8923F44073FB813B68D7
:10060000DA88FB891343FB817B68FA891A803B688F
:100610009A887B689A853B681A887B681A857A680D
:100620004FF43053C4F201039A421BD07A684FF45E
:100630005053C4F201039A4214D07A684FF48043B5
:10064000C4F201039A420DD07A684FF48843C4F291
:1006500001039A4206D07A684FF49043C4F2010332
:100660009A4204D13B681B7A1A467B681A867B68DB
:100670004FF001029A8207F11407BD4680BC704713
:1006800080B485B000AF786039604FF000037B81A3
:100690004FF00003FB814FF00003BB817B681B8C94
:1006A0009BB223F001039AB27B681A847B681B8C8F
:1006B000FB817B689B88BB817B681B8B7B817B89F3
:1006C00023F070037B817B8923F003037B813B68EC
:1006D0001A887B8913437B81FB8923F00203FB810A
:1006E0003B681A89FB891343FB813B685A88FB8965
:1006F0001343FB817A684FF43053C4F201039A42EA
:100700001BD07A684FF45053C4F201039A4214D0BC
:100710007A684FF48043C4F201039A420DD07A689C
:100720004FF48843C4F201039A4206D07A684FF42A
:100730009043C4F201039A4223D1FB8923F00803BA
:10074000FB813B685A89FB891343FB81FB8923F0BA
:100750000403FB813B689A88FB891343FB81BB89B7
:1007600023F48073BB81BB8923F40073BB813B6896
:100770009A89BB891343BB813B68DA89BB891343E0
:10078000BB817B68BA899A807B687A891A833B68C7
:10079000DA887B689A867B68FA891A8407F11407DD
:1007A000BD4680BC704700BF80B485B000AF7860A4
:1007B00039604FF000037B814FF00003FB814FF065
:1007C0000003BB817B681B8C9BB223F010039AB2A1
:1007D0007B681A847B681B8CFB817B689B88BB8150
:1007E0007B681B8B7B817B8923F4E0437B817B8946
:1007F00023F440737B813B681B884FEA03239AB242
:100800007B8913437B81FB8923F02003FB813B68B9
:100810001B894FEA03139AB2FB891343FB813B68A0
:100820005B884FEA03139AB2FB891343FB817A6812
:100830004FF43053C4F201039A4206D07A684FF461
:100840005053C4F201039A422FD1FB8923F0800355
:10085000FB813B685B894FEA03139AB2FB89134320
:10086000FB81FB8923F04003FB813B689B884FEAB7
:1008700003139AB2FB891343FB81BB8923F4806382
:10088000BB81BB8923F40063BB813B689B894FEA32
:1008900083039AB2BB891343BB813B68DB894FEA70
:1008A00083039AB2BB891343BB817B68BA899A8060
:1008B0007B687A891A833B68DA887B681A877B6849
:1008C000FA891A8407F11407BD4680BC704700BF3F
:1008D00080B485B000AF786039604FF000037B8151
:1008E0004FF00003FB814FF00003BB817B681B8C42
:1008F0009BB223F480739AB27B681A847B681B8C4A
:10090000FB817B689B88BB817B689B8B7B817B8920
:1009100023F070037B817B8923F003037B813B6899
:100920001A887B8913437B81FB8923F40073FB8145
:100930003B681B894FEA03239AB2FB891343FB816F
:100940003B685B884FEA03239AB2FB891343FB8120
:100950007A684FF43053C4F201039A4206D07A68A1
:100960004FF45053C4F201039A422FD1FB8923F470
:100970000063FB813B685B894FEA03239AB2FB89E2
:100980001343FB81FB8923F48063FB813B689B88D5
:100990004FEA03239AB2FB891343FB81BB8923F4FB
:1009A0008053BB81BB8923F40053BB813B689B8987
:1009B0004FEA03139AB2BB891343BB813B68DB89BF
:1009C0004FEA03139AB2BB891343BB817B68BA8990
:1009D0009A807B687A899A833B68DA887B689A87F1
:1009E0007B68FA891A8407F11407BD4680BC7047FA
:1009F00080B485B000AF786039604FF00003BB81F0
:100A00004FF000037B814FF00003FB817B681B8C60
:100A10009BB223F480539AB27B681A847B681B8C48
:100A20007B817B689B88FB817B689B8BBB81BB89BF
:100A300023F4E043BB81BB8923F44073BB813B6853
:100A40001B884FEA03239AB2BB891343BB817B897E
:100A500023F400537B813B681B894FEA03339AB22E
:100A60007B8913437B813B685B884FEA03339AB2EF
:100A70007B8913437B817A684FF43053C4F20103BE
:100A80009A4206D07A684FF45053C4F201039A4256
:100A90000BD1FB8923F48043FB813B689B894FEAA0
:100AA00083139AB2FB891343FB817B68FA899A808E
:100AB0007B68BA899A833B68DA887B68A3F8402010
:100AC0007B687A891A8407F11407BD4680BC704799
:100AD00080B483B000AF78600B46FB70FB78002BCE
:100AE00008D07B681B889BB243F001039AB27B68F5
:100AF0001A8007E07B681B889BB223F001039AB23F
:100B00007B681A8007F10C07BD4680BC704700BFA8
:100B100080B483B000AF78600B467B807B687A88B6
:100B20009A8607F10C07BD4680BC704780B483B03D
:100B300000AF78600B467B807B687A881A8707F164
:100B40000C07BD4680BC704780B483B000AF7860AE
:100B50000B467B807B687A889A8707F10C07BD4635
:100B600080BC704780B483B000AF78600B467B8058
:100B70007B687A88A3F8402007F10C07BD4680BC4B
:100B8000704700BF80B500AF00F026FA00F00EF805
:100B90004FF001004FF0000100F096F84FF0020016
:100BA0004FF0000100F090F8FEE700BF80B588B07C
:100BB00000AF4FF002004FF00101FFF7A9FC4FF02A
:100BC00010004FF00101FFF779FC4FF44060C0F2D4
:100BD0001A004FF00101FFF7E1FB4FF01C03FB7718
:100BE0004FF47073BB834FF00203BB7707F11C0314
:100BF0004FF48050C4F201001946FFF7DBFA4FF4BE
:100C00008050C4F201004FF00001FFF7B9FB40F241
:100C10000003C2F200031A6841F68553C6F6D97381
:100C2000A3FB02134FEA13539BB203F1FF339BB2B2
:100C30003B824FF0FF03BB824FF00003FB824FF07B
:100C400000037B8207F110034FF48060C4F20000C0
:100C50001946FFF787FC4FF060033B804FF001031C
:100C60007B804FF00003FB804FF000033B813B464D
:100C70004FF48060C4F200001946FFF701FD3B46C7
:100C80004FF48060C4F200001946FFF78DFD3B462B
:100C90004FF48060C4F200001946FFF719FE3B468E
:100CA0004FF48060C4F200001946FFF7A1FE4FF434
:100CB0008060C4F200004FF00101FFF709FF07F167
:100CC0002007BD4680BD00BF80B584B000AF02469E
:100CD0000B46FA71BB71FB7918464FF0000100F02A
:100CE000F5F8FB79012B02D0022B75D0E9E04FF427
:100CF0008050C4F201004FF04001FFF733FB4FF486
:100D00008050C4F201004FF08001FFF72BFBBB794C
:100D1000012B16D0022B39D0002B5CD14FF01403DD
:100D2000FB734FF0C003BB814FF00203BB7307F1AD
:100D30000C034FF48050C4F201001946FFF73AFA51
:100D400049E04FF01403FB734FF08003BB814FF079
:100D50000203BB7307F10C034FF48050C4F201008F
:100D60001946FFF727FA4FF01C03FB734FF04003BF
:100D7000BB814FF00203BB7307F10C034FF48050AB
:100D8000C4F201001946FFF715FA24E04FF01403EE
:100D9000FB734FF04003BB814FF00203BB7307F1BD
:100DA0000C034FF48050C4F201001946FFF702FA19
:100DB0004FF01C03FB734FF08003BB814FF0020325
:100DC000BB7307F10C034FF48050C4F201001946C5
:100DD000FFF7F0F900BF74E04FF48050C4F2010057
:100DE0004FF48071FFF7BEFA4FF48050C4F2010057
:100DF0004FF40071FFF7B6FABB79012B16D0022B26
:100E000039D0002B5CD14FF01403FB734FF44073C7
:100E1000BB814FF00203BB7307F10C034FF480500A
:100E2000C4F201001946FFF7C5F949E04FF0140379
:100E3000FB734FF40073BB814FF00203BB7307F1E8
:100E40000C034FF48050C4F201001946FFF7B2F9C9
:100E50004FF01C03FB734FF48073BB814FF0020310
:100E6000BB7307F10C034FF48050C4F20100194624
:100E7000FFF7A0F924E04FF01403FB734FF48073E5
:100E8000BB814FF00203BB7307F10C034FF480509A
:100E9000C4F201001946FFF78DF94FF01C03FB73F4
:100EA0004FF40073BB814FF00203BB7307F10C03D7
:100EB0004FF48050C4F201001946FFF77BF900BFE0
:100EC00000BF07F11007BD4680BD00BF80B582B0EE
:100ED00000AF02460B46FA71BB71FB79012B02D0C1
:100EE000022B13D025E0BB799BB24FF48060C4F293
:100EF00000001946FFF70CFEBB799BB24FF48060EF
:100F0000C4F200001946FFF711FE12E0BB799BB254
:100F10004FF48060C4F200001946FFF715FEBB795C
:100F20009BB24FF48060C4F200001946FFF71AFE2E
:100F300000BF07F10807BD4680BD00BF0649074A4C
:100F4000074B9A42BEBF51F8040B42F8040BF8E776
:100F50000448804704480047EC12000800000020C5
:100F60006C000020D90F000841010008FEE7FEE7F1
:100F7000FEE7FEE7FEE7FEE7FEE7FEE7FEE7FEE749
:100F8000FEE7FEE7FEE7FEE7FEE7FEE7FEE7FEE739
:100F9000FEE7FEE7FEE7FEE7FEE7FEE7FEE7FEE729
:100FA000FEE7FEE7FEE7FEE7FEE7FEE7FEE7FEE719
:100FB000FEE7FEE7FEE7FEE7FEE7FEE7FEE7FEE709
:100FC000FEE7FEE7FEE7FEE7FEE7FEE7FEE7FEE7F9
:100FD000FEE7FEE7FEE700BF80B500AF4FF48053A9
:100FE000C4F202034FF48052C4F20202126842F0CB
:100FF00001021A604FF48052C4F202024FF480538F
:10100000C4F2020359684FF00003CFF6FF030B4010
:1010100053604FF48053C4F202034FF48052C4F281
:101020000202126822F0847222F480321A604FF4B5
:101030008053C4F202034FF48052C4F202021268D9
:1010400022F480221A604FF48053C4F202034FF45A
:101050008052C4F20202526822F4FE025A604FF437
:101060008053C4F202034FF41F029A6000F008F8A4
:101070004FF46D43CEF200034FF000629A6080BDE2
:1010800080B500AF00F002F880BD00BF80B483B02F
:1010900000AF4FF000037B604FF000033B604FF464
:1010A0008053C4F202034FF48052C4F20202126869
:1010B00042F480321A604FF48053C4F202031B687A
:1010C00003F400333B607B6803F101037B603B6802
:1010D000002B03D17B68B3F5A06FECD14FF48053A4
:1010E000C4F202031B6803F40033002B03D04FF05B
:1010F00001033B6002E04FF000033B603B68012BC3
:1011000040F094804FF40053C4F202034FF40052B5
:10111000C4F20202126842F010021A604FF4005347
:10112000C4F202034FF40052C4F20202126822F029
:1011300003021A604FF40053C4F202034FF400524A
:10114000C4F20202126842F002021A604FF48053A5
:10115000C4F202034FF48052C4F2020252685A6091
:101160004FF48053C4F202034FF48052C4F20202DF
:1011700052685A604FF48053C4F202034FF4805215
:10118000C4F20202526842F480625A604FF4805303
:10119000C4F202034FF48052C4F20202526822F4F5
:1011A0007C125A604FF48053C4F202034FF4805211
:1011B000C4F20202526842F4E8125A604FF48053BB
:1011C000C4F202034FF48052C4F20202126842F0E9
:1011D00080721A6000BF4FF48053C4F202031B6890
:1011E00003F00073002BF6D04FF48053C4F20203D7
:1011F0004FF48052C4F20202526822F003025A6095
:101200004FF48053C4F202034FF48052C4F202023E
:10121000526842F002025A6000BF4FF48053C4F299
:1012200002035B6803F00C03082BF6D107F10C07EF
:10123000BD4680BC704700BF08B5074B044613B1DC
:101240000021AFF30080054B1868836A03B198470B
:10125000204600F033F800BF00000000DC12000858
:1012600070B50E4B0E4D0024ED1AAD101E4603E076
:1012700056F8242090470134AC42F9D100F020F810
:10128000084D094B0024ED1AAD101E4603E056F838
:10129000242090470134AC42F9D170BD6400002095
:1012A00064000020680000206400002082180346CB
:1012B00001E003F8011B9342FBD17047FEE700BF3A
:1012C000F8B500BFF8BC08BC9E467047F8B500BF33
:1012D000F8BC08BC9E467047430000000400002094
:0412E000000000000A
:0812E4005CEEFF7F0100000039
:1012EC0000A24A0400000000000000000000000002
:1012FC0000000000000000000000000000000000E2
:10130C0000000000D81200080000000000000000DF
:10131C0000000000000000000000000000000000C1
:10132C0000000000000000000000000000000000B1
:10133C0000000000000000000000000000000000A1
:0C134C000000000011010008ED00000886
:0400000508000000EF
:00000001FF
